:100000000C9457000C9474000C9474000C947400BD
:100010000C9474000C9474000C9474000C94740090
:100020000C9474000C9474000C9474000C94740080
:100030000C9474000C9474000C9474000C94740070
:100040000C9474000C9474000C9474000C94740060
:100050000C94F8030C9474000C9474000C947400C9
:100060000C9474000C94740000000000250028001B
:100070002B0000000000240027002A0000000000E0
:1000800023002600290004040404040404040202DA
:100090000202020203030303030301020408102007
:1000A00040800102040810200102040810201124DD
:1000B0001FBECFEFD8E0DEBFCDBF11E0A0E0B1E0C2
:1000C000E8ECF4E102C005900D92AE37B107D9F724
:1000D00023E0AEE7B1E001C01D92A330B207E1F723
:1000E0000E9430060C94620A0C940000EF92FF927A
:1000F0000F931F93CF93DF937C018B01040F151F88
:10010000EB01C017D10750F4F999FECFCE010E9440
:10011000150AF70181937F012196F3CFDF91CF91EB
:100120001F910F91FF90EF900895CF92DF92EF9281
:10013000FF920F931F93CF93DF936C017B01E40E2B
:10014000F51EEB0100E010E0FE01CE15DF0560F4C6
:10015000F999FECF21966081C8018C0D9D1D0E94EA
:100160001D0A0F5F1F4FF0CFC801DF91CF911F9184
:100170000F91FF90EF90DF90CF9008951092C500FF
:100180008093C40088E18093C10086E08093C20020
:1001900008959091C00095FFFCCF8093C60008950C
:1001A0001F93CF93DF93EC0110E0812F90E0FE01CD
:1001B00001900020E9F73197EC1BFD0B8E179F078C
:1001C00040F4FE01E80FF91F80810E94C9001F5F03
:1001D000ECCF8091C00085FD1092C600DF91CF91D9
:1001E0001F9108958F929F92AF92BF92CF92DF920C
:1001F000EF92FF920F931F93CF93DF93CDB7DEB7AC
:10020000E2970FB6F894DEBF0FBECDBF1092AC01DF
:100210001092AB0110929301109292018091F6021C
:100220001F928F9380E0A82E81E0B82EBF92AF92EC
:100230008E01075D1F4F1F930F930E945207F80115
:1002400001900020E9F7AF01401B510BB8018091EC
:10025000AB019091AC010E9495004C01CE0101963A
:100260007C01FC0101900020E9F73197AF01481BA8
:10027000590B60E070E00E940C07F801019000202B
:10028000E9F7AF01401B510B6091AB017091AC01DC
:10029000C7010E947600F80101900020E9F731972C
:1002A000E01BF10BEC0FFD1F10828091AC018F93CE
:1002B0008091AB018F93FF92EF9288E091E09F9342
:1002C0008F936E0195E1C90ED11CDF92CF920E94EF
:1002D0005207C6010E94D0008FE99FE00197F1F715
:1002E00000C000008091AB019091AC01880E991E76
:1002F0009092AC018092AB018091AA018F93809182
:10030000A9018F93BF92AF921F930F930E94520740
:10031000F80101900020E9F7AF01401B510BB80133
:100320008091AB019091AC010E9495004C01F701C6
:1003300001900020E9F73197AF014E195F0960E0A5
:1003400070E0C7010E940C07F80101900020E9F756
:10035000AF01401B510B6091AB017091AC01C70123
:100360000E947600F80101900020E9F73197E01B28
:10037000F10BEC0FFD1F10828091AC018F938091E7
:10038000AB018F93FF92EF928DE191E09F938F935A
:10039000DF92CF920E945207C6010E94D0008FE9DF
:1003A0009FE00197F1F700C000008091AB019091B0
:1003B000AC01880E991E9092AC018092AB018091A5
:1003C000F4028F938091F3028F93BF92AF921F93A9
:1003D0000F930E945207F80101900020E9F70FB631
:1003E000F894DEBF0FBECDBFAF01401B510BB8016B
:1003F0008091AB019091AC010E9495004C01F701F6
:1004000001900020E9F73197AF014E195F0960E0D4
:1004100070E0C7010E940C07F80101900020E9F785
:10042000AF01401B510B6091AB017091AC01C70152
:100430000E947600F80101900020E9F73197E01B57
:10044000F10BEC0FFD1F10828091AC018F93809116
:10045000AB018F93FF92EF9282E391E09F938F9392
:10046000DF92CF920E945207C6010E94D0008FE90E
:100470009FE00197F1F700C000008091AB019091DF
:10048000AC01880E991E9092AC018092AB018091D4
:1004900002038F93809101038F93BF92AF921F93BA
:1004A0000F930E945207F80101900020E9F7AF0175
:1004B000401B510BB8018091AB019091AC010E949F
:1004C00095005C01F70101900020E9F73197AF0139
:1004D0004E195F0960E070E0C7010E940C07F80147
:1004E00001900020E9F7AF01401B510B6091AB0177
:1004F0007091AC01C7010E947600F80101900020C4
:10050000E9F73197E01BF10BEC0FFD1F1082809192
:10051000AC018F938091AB018F93FF92EF9287E4B0
:1005200091E09F938F93DF92CF920E945207C60172
:100530000E94D0008091AB019091AC01A80EB91E31
:10054000B092AC01A092AB01B0929501A09294013F
:10055000B0929701A09296018FE99FE00197F1F781
:1005600000C000000FB6F894DEBF0FBECDBFE2960C
:100570000FB6F894DEBF0FBECDBFDF91CF911F91B4
:100580000F91FF90EF90DF90CF90BF90AF909F9032
:100590008F9008950F931F93CF93DF93CDB7DEB75E
:1005A000C654D1090FB6F894DEBF0FBECDBFE7EF3A
:1005B000F2E001900020E9F73197E75FF240809187
:1005C00094019091950145E04E9F90014F9F300D11
:1005D0001124280F391F309391012093900120910D
:1005E0009601309197012817390720F490939701CD
:1005F0008093960107EF12E0F80101900020E9F7DF
:10060000AF01475F5240B8018091960190919701E8
:100610000E949500CE01C396FC0101900020E9F7ED
:100620003197AF01481B590B60E070E00E940C0746
:10063000F80101900020E9F73197E75FF2408091DF
:100640009601909197018E0F9F1F6091900170917C
:1006500091010E94DA069093970180939601F80128
:1006600001900020E9F731978F01075F12408091D8
:10067000920190919301080F191F10939301009319
:1006800092018E010F5F1F4FF80101900020E9F7E2
:100690003197AF01401B510B60E070E0C8010E9430
:1006A0000C07C8010E94D000CA5BDF4F0FB6F89458
:1006B000DEBF0FBECDBFDF91CF911F910F91089587
:1006C0006F927F928F929F92AF92BF92CF92DF9262
:1006D000EF92FF920F931F93CF93DF93CDB7DEB7C7
:1006E000A8970FB6F894DEBF0FBECDBFE09094017F
:1006F000F09095018E010F5F1F4FF80101900020CF
:10070000E9F73197AF01401B510B60E070E0C80181
:100710000E940C07C12CD12C87EFA82E82E0B82EA6
:100720009BE5692E91E0792E4E0185E1880E911CA2
:1007300080919001909191012091940130919501C7
:10074000821B930BC816D906D0F5F5010190002045
:10075000E9F7AF01475F5240B701C8010E94760038
:10076000F50101900020E9F73197E75FF240EC0FC7
:10077000FD1F1082FF92EF921F930F937F926F9253
:100780009F928F920E945207C4010E94D000F801EC
:1007900001900020E9F73197E01BF10BEE0EFF1EF0
:1007A000F50101900020E9F73197E75FF240CE0EA6
:1007B000DF1E0FB6F894DEBF0FBECDBFB9CF1092CB
:1007C000930110929201A8960FB6F894DEBF0FBE67
:1007D000CDBFDF91CF911F910F91FF90EF90DF90F0
:1007E000CF90BF90AF909F908F907F906F90089523
:1007F0001F920F920FB60F9211242F933F938F9356
:10080000EF93FF93E0919F0180919E01E817D9F04B
:10081000F0E0E950FD4F80818093C60080919F01F8
:1008200021E0280F20939F01E7EFF2E001900020E4
:10083000E9F73197E75FF24030E02E173F0718F0F5
:100840008E5F80939F01FF91EF918F913F912F9148
:100850000F900FBE0F901F9018958091C00087FFDA
:10086000FCCF8091C6000895CF92DF92EF92FF9265
:100870000F931F93CF93DF93CDB7DEB7C654D10943
:100880000FB6F894DEBF0FBECDBF10928F0110924D
:100890008E018E010F5F1F4F88E2F80111928A9539
:1008A000E9F7F80101900020E9F73197AF01401B0B
:1008B000510B60E070E0C8010E940C077E01F9E274
:1008C000EF0EF11CF70101900020E9F73197AF011D
:1008D0004E195F0960E070E0C7010E940C0786E7CF
:1008E00091E00E94D0008091A6019091A701892BF0
:1008F000F1F0C0908E01D0908F010E942D04F7017D
:10090000EC0DFD1D808380918E0190918F01F70188
:10091000E80FF91F20812A3021F41092A7011092CC
:10092000A601019690938F0180938E01DCCF8AA55A
:10093000813309F04DC081E090E090938D01809368
:100940008C016E012AE2C20ED11CE12CF12C80E058
:1009500090E0F60121916F012132F1F1F801E80FE9
:10096000F91F2B3319F020830196F3CF1082C801B1
:100970000E94EE06E1E0EE16F10419F48093F6020F
:1009800016C0F2E0EF16F10429F48093A9019093C8
:10099000AA010DC023E0E216F10429F48093F302CA
:1009A0009093F40204C08093010390930203F80132
:1009B00001900020E9F73197AF01401B510B60E037
:1009C00070E0C8010E940C078FEFE81AF80ABFCF49
:1009D00010928D0110928C01CA5BDF4F0FB6F89414
:1009E000DEBF0FBECDBFDF91CF911F910F91FF9062
:1009F000EF90DF90CF90089590E0FC01E656FF4F16
:100A00002491FC01EA57FF4FE491EE2371F0F0E0EE
:100A1000EE0FFF1FE458FF4FA591B491EC91E22334
:100A200081E090E021F480E0089580E090E0089576
:100A3000CF93DF93EC0110929A0110929B011092D8
:100A40009C0110929D0189E00E94FC0440919A0152
:100A500050919B0160919C0170919D018C179D07A5
:100A6000F9F4DB01CA010196A11DB11D80939A0121
:100A700090939B01A0939C01B0939D018091EF0204
:100A80009091F002A091F102B091F202481759073B
:100A90006A077B07C0F230E020E080E090E003C00E
:100AA000342F252FCB01632F722FDF91CF91089523
:100AB000CF92DF92EF92FF920F931F93CF93DF932A
:100AC000109283011092820110928501109284018C
:100AD000109287011092860110928901109288016C
:100AE00010928B0110928A01299A2FEF84E39CE0E7
:100AF000215080409040E1F700C00000219A85B16C
:100B000015B8EFEFF9EF20E0E150F0402040E1F7B9
:100B100000C00000F894299A85ED8A95F1F700004D
:100B20008091A80190E0880F991FFC01EE58FF4FBB
:100B3000A591B491B093A101A093A001FC01E85943
:100B4000FF4F859194919093A5018093A4012FB7B5
:100B50009C918091A301809589238C93E091A401BD
:100B6000F091A50190818091A301892B80832FBFF3
:100B700095E39A95F1F7000080E090E00E94180557
:100B8000672B682B692B19F480E090E055C081E059
:100B900090E00E941805672B682B692BA9F30DEADA
:100BA00011E0E80180E090E00E94180568837983F5
:100BB0008A839B8381E090E00E9418056C837D838B
:100BC0008E839F832896E2E0CD3EDE0759F720E032
:100BD00030E0F801C080D180E280F380448155810B
:100BE00066817781C114D104E104F10469F24115F1
:100BF00051056105710541F2F90183E0F595E7952D
:100C00008A95E1F7EE0FFF1FEE57FE4F808191812D
:100C1000880F991FC416D506E606F70608F481600A
:100C2000918380832F5F3F4F085F1F4F283231052C
:100C300081F6789481E090E0DF91CF911F910F9140
:100C4000FF90EF90DF90CF900895009741F0EFE98B
:100C5000FFE03197F1F700C000000197F6CF08954B
:100C600087E60E94BE007894219AE3EAF0E0E491DE
:100C7000E093A30180E89EE3A0E0B0E08093EF0260
:100C80009093F002A093F102B093F202EFE8F0E04B
:100C9000E491E093A8012FEF81EE94E02150804091
:100CA0009040E1F700C00000C1E0D0E08091010376
:100CB000909102030E942506D093A701C093A6013C
:100CC0000E94340480918C0190918D01892B11F048
:100CD0000E94F2002FEF81EE94E02150804090407E
:100CE000E1F700C000000E9458058091F6028D7F58
:100CF0008130D1F4009186011091870168E771E09D
:100D000087EF92E00E941E074AE069EF72E0C80197
:100D10000E94250764E071E087EF92E00E941307CC
:100D200087EF92E00E94D0008091F60282508230DC
:100D3000D0F400918201109183016BE771E087EF9D
:100D400092E00E941E074AE069EF72E0C8010E942B
:100D5000250764E071E087EF92E00E94130787EFB8
:100D600092E00E94D0000E94CA028091900190916E
:100D700091012091940130919501821B930B209158
:100D80009201309193018217930721F40E9460032E
:100D90000E94F200E7EFF2E001900020E9F73197BE
:100DA000AF01475F524060E070E087EF92E00E9441
:100DB0000C077CCFAA1BBB1B51E107C0AA1FBB1F9E
:100DC000A617B70710F0A61BB70B881F991F5A95D7
:100DD000A9F780959095BC01CD010895FC01882765
:100DE0009927E89421912032E9F3293010F02E3030
:100DF000C8F32B3241F02D3239F4689404C00E94BC
:100E00003007820F911D219120532A30C0F31EF428
:100E1000909581959F4F0895DC0101C06D934150DD
:100E20005040E0F70895FB01DC010D900020E9F748
:100E3000119701900D920020E1F70895FB01DC016C
:100E400001900D920020E1F70895BB274A3031F45C
:100E5000992322F4BDE2909581959F4F0C94390718
:100E60007AE0979F902D879F802D910D11240895F2
:100E7000BB27FB015527AA27880F991FAA1FA41774
:100E800010F0A41B83955051B9F7A05DAA3308F068
:100E9000A95DA193009779F7B111B1931192CB019C
:100EA0000C946B09AEE0B0E0E8E5F7E00C94390A89
:100EB0000D891E8986E08C831A8309838FEF9FE753
:100EC0009E838D83AE01475E5F4F6F89788DCE0123
:100ED00001960E947407EF81F885E00FF11F1082E0
:100EE0002E96E4E00C94550AABE0B0E0EAE7F7E0B8
:100EF0000C942B0A6C017B018A01FC01178216827B
:100F0000838181FFCCC1CE0101963C01F601938122
:100F1000F70193FD859193FF81917F01882309F467
:100F2000BAC1853239F493FD859193FF81917F0198
:100F3000853229F4B60190E00E947B09E7CF912C1D
:100F4000212C312CFFE1F315D8F08B3279F038F4F5
:100F5000803279F08332A1F4232D20611DC08D32BF
:100F600061F0803369F4232D216016C0832D8260E7
:100F7000382EE32DE4603E2E2AC0F32DF8601DC00C
:100F800037FC2DC020ED280F2A3040F08E32B9F406
:100F900036FC81C1232D2064322E19C036FE06C0D6
:100FA0008AE0989E200D1124922E11C0EAE02E9E18
:100FB000200D1124222EF32DF0623F2E08C08C3616
:100FC00021F4832D8068382E02C0883641F4F70161
:100FD00093FD859193FF81917F018111B3CF982F6C
:100FE0009F7D9554933028F40C5F1F4F9FE39983A6
:100FF0000DC0833631F0833771F0833509F059C065
:1010000021C0F801808189830E5F1F4F882483945B
:10101000912C530113C02801F2E04F0E511CF8012E
:10102000A080B18036FE03C0692D70E002C06FEF72
:101030007FEFC5010E9460094C018201F32DFF770B
:101040003F2E16C0280122E0420E511CF801A0805C
:10105000B18036FE03C0692D70E002C06FEF7FEFF4
:10106000C5010E9455094C01F32DF0683F2E820105
:1010700033FC1BC0822D90E088169906B0F4B601AF
:1010800080E290E00E947B092A94F4CFF50137FCBE
:10109000859137FE81915F01B60190E00E947B0946
:1010A00021102A9421E0821A91088114910471F789
:1010B000E8C0843611F0893641F5F80137FE07C0E3
:1010C00060817181828193810C5F1F4F08C06081B4
:1010D0007181072E000C880B990B0E5F1F4FF32DAB
:1010E000FF763F2E97FF09C090958095709561958A
:1010F0007F4F8F4F9F4FF0683F2E2AE030E0A301D3
:101100000E94B709882E861845C0853731F4232DF3
:101110002F7EB22E2AE030E025C0932D997FB92E84
:101120008F36C1F018F4883579F0B5C0803719F0E2
:10113000883721F0B0C0E92FE061BE2EB4FE0DC0AB
:10114000FB2DF460BF2E09C034FE0AC0292F266093
:10115000B22E06C028E030E005C020E130E002C039
:1011600020E132E0F801B7FE07C060817181828121
:1011700093810C5F1F4F06C06081718180E090E019
:101180000E5F1F4FA3010E94B709882E8618FB2D02
:10119000FF773F2E36FE0DC0232D2E7FA22E891401
:1011A00058F434FE0BC032FC09C0832D8E7EA82E6D
:1011B00005C0B82CA32C03C0B82C01C0B92CA4FEC8
:1011C0000FC0FE01E80DF11D8081803321F49A2DBE
:1011D000997EA92E09C0A2FE06C0B394B39404C0A0
:1011E0008A2D867809F0B394A3FC11C0A0FE06C036
:1011F000B21488F4280C922C9B180EC0B21460F420
:10120000B60180E290E00E947B09B394F7CFB2145C
:1012100018F42B1802C0982C212CA4FE10C0B60183
:1012200080E390E00E947B09A2FE17C0A1FC03C0EE
:1012300088E790E002C088E590E0B6010CC08A2DF6
:10124000867859F0A1FE02C08BE201C080E2A7FCC3
:101250008DE2B60190E00E947B09891438F4B60152
:1012600080E390E00E947B099A94F7CF8A94F3017F
:10127000E80DF11D8081B60190E00E947B0981108C
:10128000F5CF222009F442CEB60180E290E00E9420
:101290007B092A94F6CFF6018681978102C08FEFF1
:1012A0009FEF2B96E2E10C94470AFC0105906150F8
:1012B00070400110D8F7809590958E0F9F1F08956C
:1012C000FC016150704001900110D8F78095909515
:1012D0008E0F9F1F0895DC01FC01672F719177230A
:1012E000E1F7329704C07C916D9370836291AE17E1
:1012F000BF07C8F308950F931F93CF93DF93FB01AC
:10130000238121FD03C08FEF9FEF2CC022FF16C069
:1013100046815781248135814217530744F4A081C7
:10132000B1819D012F5F3F4F318320838C932681B4
:1013300037812F5F3F4F3783268314C08B01EC0129
:10134000FB010084F185E02D0995892BE1F6D80198
:1013500016968D919C911797019617969C938E9354
:101360001697CE01DF91CF911F910F910895FA0149
:10137000AA27283051F1203181F1E8946F936E7FD4
:101380006E5F7F4F8F4F9F4FAF4FB1E03ED0B4E0C5
:101390003CD0670F781F891F9A1FA11D680F791F06
:1013A0008A1F911DA11D6A0F711D811D911DA11D17
:1013B00020D009F468943F912AE0269F1124301927
:1013C000305D3193DEF6CF010895462F4770405DC2
:1013D0004193B3E00FD0C9F7F6CF462F4F70405D71
:1013E0004A3318F0495D31FD4052419302D0A9F7CC
:1013F000EACFB4E0A6959795879577956795BA95C6
:10140000C9F700976105710508959B01AC010A2E8B
:1014100006945795479537952795BA95C9F7620F62
:10142000731F841F951FA01D0895F999FECF92BDCB
:1014300081BDF89A992780B50895262FF999FECF96
:101440001FBA92BD81BD20BD0FB6F894FA9AF99AE1
:101450000FBE019608952F923F924F925F926F9226
:101460007F928F929F92AF92BF92CF92DF92EF9234
:10147000FF920F931F93CF93DF93CDB7DEB7CA1BB5
:10148000DB0B0FB6F894DEBF0FBECDBF09942A88E0
:10149000398848885F846E847D848C849B84AA8488
:1014A000B984C884DF80EE80FD800C811B81AA8115
:1014B000B981CE0FD11D0FB6F894DEBF0FBECDBFE0
:0814C000ED010895F894FFCF3F
:1014C800256400002C0A000073656E735F72656105
:1014D800642025732061742025640D0A006D696EEF
:1014E8005F76616C75652025732061742025640D15
:1014F8000A006D61785F76616C75652025732061DF
:10150800742025640D0A0064656C5F72656164204F
:1015180025732061742025640D0A00636972637560
:101528006C61725F627566666572202573206174EE
:0E1538002025640D0A002500543A00483A00B0
:00000001FF
